:100000000C942A000C9434000C9434000C943400AA
:100010000C9434000C9434000C9434000C94340090
:100020000C9434000C9434000C9434000C94340080
:100030000C9434000C9434000C9434000C94340070
:100040000C9434000C9434000C9434000C94340060
:100050000C94340011241FBECFE5D8E0DEBFCDBF25
:100060000E9436000C9499000C940000CF93DF930B
:100070008FEF8ABB1BBAC8ECD0E081E06BE10E9435
:10008000800080E395E7FE013197F1F70197D9F7FA
:1000900081E062E20E94800080E395E7FE013197F3
:1000A000F1F70197D9F780E06FE20E94800080E3CA
:1000B00095E7FE013197F1F70197D9F781E068E301
:1000C0000E94800080E395E7FE013197F1F70197E8
:1000D000D9F780E069E00E94800080E395E7FE01A7
:1000E0003197F1F70197D9F781E069E30E94800029
:1000F00080E395E7FE013197F1F70197D9F7BDCF7E
:10010000DF98882311F4606803C0813009F46064CB
:1001100080E090E067FF02C0DE9A01C0DE98DD98C3
:10012000DD9A01968830910511F0660FF3CFDF9AC2
:060130000895F894FFCFD2
:00000001FF
